{"abi":[{"inputs":[{"internalType":"address","name":"_dappTokenAddress","type":"address"}],"stateMutability":"nonpayable","type":"constructor","name":"constructor"},{"anonymous":false,"inputs":[{"indexed":true,"internalType":"address","name":"previousOwner","type":"address"},{"indexed":true,"internalType":"address","name":"newOwner","type":"address"}],"name":"OwnershipTransferred","type":"event"},{"inputs":[{"internalType":"address","name":"_token","type":"address"}],"name":"addAllowedTokens","outputs":[],"stateMutability":"nonpayable","type":"function"},{"inputs":[{"internalType":"uint256","name":"","type":"uint256"}],"name":"allowedTokens","outputs":[{"internalType":"address","name":"","type":"address"}],"stateMutability":"view","type":"function"},{"inputs":[],"name":"dappToken","outputs":[{"internalType":"contract IERC20","name":"","type":"address"}],"stateMutability":"view","type":"function"},{"inputs":[{"internalType":"address","name":"_token","type":"address"}],"name":"getTokenValue","outputs":[{"internalType":"uint256","name":"","type":"uint256"},{"internalType":"uint256","name":"","type":"uint256"}],"stateMutability":"view","type":"function"},{"inputs":[{"internalType":"address","name":"_user","type":"address"},{"internalType":"address","name":"_token","type":"address"}],"name":"getUserSingleTokenValue","outputs":[{"internalType":"uint256","name":"","type":"uint256"}],"stateMutability":"view","type":"function"},{"inputs":[{"internalType":"address","name":"_user","type":"address"}],"name":"getUserTotalValue","outputs":[{"internalType":"uint256","name":"","type":"uint256"}],"stateMutability":"view","type":"function"},{"inputs":[],"name":"issueTokens","outputs":[],"stateMutability":"nonpayable","type":"function"},{"inputs":[],"name":"owner","outputs":[{"internalType":"address","name":"","type":"address"}],"stateMutability":"view","type":"function"},{"inputs":[],"name":"renounceOwnership","outputs":[],"stateMutability":"nonpayable","type":"function"},{"inputs":[{"internalType":"address","name":"_token","type":"address"},{"internalType":"address","name":"_priceFeed","type":"address"}],"name":"setPriceFeedContract","outputs":[],"stateMutability":"nonpayable","type":"function"},{"inputs":[{"internalType":"uint256","name":"_amount","type":"uint256"},{"internalType":"address","name":"_token","type":"address"}],"name":"stakeTokens","outputs":[],"stateMutability":"nonpayable","type":"function"},{"inputs":[{"internalType":"uint256","name":"","type":"uint256"}],"name":"stakers","outputs":[{"internalType":"address","name":"","type":"address"}],"stateMutability":"view","type":"function"},{"inputs":[{"internalType":"address","name":"","type":"address"},{"internalType":"address","name":"","type":"address"}],"name":"stakingBalance","outputs":[{"internalType":"uint256","name":"","type":"uint256"}],"stateMutability":"view","type":"function"},{"inputs":[{"internalType":"address","name":"_token","type":"address"}],"name":"tokenIsAllowed","outputs":[{"internalType":"bool","name":"","type":"bool"}],"stateMutability":"view","type":"function"},{"inputs":[{"internalType":"address","name":"","type":"address"}],"name":"tokenPriceFeedMapping","outputs":[{"internalType":"address","name":"","type":"address"}],"stateMutability":"view","type":"function"},{"inputs":[{"internalType":"address","name":"newOwner","type":"address"}],"name":"transferOwnership","outputs":[],"stateMutability":"nonpayable","type":"function"},{"inputs":[{"internalType":"address","name":"_token","type":"address"}],"name":"unStakeTokens","outputs":[],"stateMutability":"nonpayable","type":"function"},{"inputs":[{"internalType":"address","name":"","type":"address"}],"name":"uniqueTokenStaked","outputs":[{"internalType":"uint256","name":"","type":"uint256"}],"stateMutability":"view","type":"function"}],"bytecode":"608060405234801561001057600080fd5b5060405161106338038061106383398101604081905261002f916100ad565b6100383361005d565b600680546001600160a01b0319166001600160a01b03929092169190911790556100dd565b600080546001600160a01b038381166001600160a01b0319831681178455604051919092169283917f8be0079c531659141344cd1fd0a4f28419497f9722a3daafe3b4186f6b6457e09190a35050565b6000602082840312156100bf57600080fd5b81516001600160a01b03811681146100d657600080fd5b9392505050565b610f77806100ec6000396000f3fe608060405234801561001057600080fd5b50600436106101165760003560e01c8063715018a6116100a2578063c542123011610071578063c542123014610262578063dd5b846714610275578063f1c5d6c214610298578063f2fde38b146102c0578063fd5e6dd1146102d357600080fd5b8063715018a614610223578063877dd39d1461022b5780638da5cb5b1461023e578063af3f5e221461024f57600080fd5b806329161a00116100e957806329161a00146101aa57806355b08abc146101d55780635e5f2e26146101f55780635eb186f81461020857806360ab58521461021b57600080fd5b80630bea440d1461011b578063171e44ea14610130578063276b11da1461014357806327927b3e14610169575b600080fd5b61012e610129366004610c25565b6102e6565b005b61012e61013e366004610c51565b6104b4565b610156610151366004610c73565b61052f565b6040519081526020015b60405180910390f35b610192610177366004610c51565b6005602052600090815260409020546001600160a01b031681565b6040516001600160a01b039091168152602001610160565b6101566101b8366004610c73565b600360209081526000928352604080842090915290825290205481565b6101566101e3366004610c51565b60046020526000908152604090205481565b610192610203366004610c9d565b6105b6565b600654610192906001600160a01b031681565b61012e6105e0565b61012e6106dd565b61012e610239366004610c73565b610713565b6000546001600160a01b0316610192565b61015661025d366004610c51565b61076b565b61012e610270366004610c51565b610828565b610288610283366004610c51565b61093b565b6040519015158152602001610160565b6102ab6102a6366004610c51565b6109a5565b60408051928352602083019190915201610160565b61012e6102ce366004610c51565b610aa6565b6101926102e1366004610c9d565b610b3e565b6000821161033b5760405162461bcd60e51b815260206004820152601d60248201527f416d6f756e74206d757374206265206d6f7265207468616e207a65726f00000060448201526064015b60405180910390fd5b6103448161093b565b6103875760405162461bcd60e51b8152602060048201526014602482015273151bdad95b881a5cc81b9bdd08185b1b1bddd95960621b6044820152606401610332565b6040516323b872dd60e01b8152336004820152306024820152604481018390526001600160a01b038216906323b872dd906064016020604051808303816000875af11580156103da573d6000803e3d6000fd5b505050506040513d601f19601f820116820180604052508101906103fe9190610cb6565b506104093382610b4e565b6001600160a01b0381166000908152600360209081526040808320338452909152902054610438908390610cee565b6001600160a01b0382166000908152600360209081526040808320338452825280832093909355600490522054600114156104b057600280546001810182556000919091527f405787fa12a823e0f2b7631cc41b3ba8828b3321ca811111fa75cd3aa3bb5ace0180546001600160a01b031916331790555b5050565b6000546001600160a01b031633146104de5760405162461bcd60e51b815260040161033290610d06565b6001805480820182556000919091527fb10e2d527612073b26eecdfd717e6a320cf44b4afac2b0732d9fcbe2b7fa0cf60180546001600160a01b0319166001600160a01b0392909216919091179055565b6001600160a01b038216600090815260046020526040812054610554575060006105b0565b600080610560846109a5565b909250905061057081600a610e1f565b6001600160a01b038086166000908152600360209081526040808320938a16835292905220546105a1908490610e2b565b6105ab9190610e4a565b925050505b92915050565b600181815481106105c657600080fd5b6000918252602090912001546001600160a01b0316905081565b6000546001600160a01b0316331461060a5760405162461bcd60e51b815260040161033290610d06565b60005b6002548110156106da5760006002828154811061062c5761062c610e6c565b60009182526020822001546001600160a01b0316915061064b8261076b565b60065460405163a9059cbb60e01b81526001600160a01b0385811660048301526024820184905292935091169063a9059cbb906044016020604051808303816000875af11580156106a0573d6000803e3d6000fd5b505050506040513d601f19601f820116820180604052508101906106c49190610cb6565b50505080806106d290610e82565b91505061060d565b50565b6000546001600160a01b031633146107075760405162461bcd60e51b815260040161033290610d06565b6107116000610bb9565b565b6000546001600160a01b0316331461073d5760405162461bcd60e51b815260040161033290610d06565b6001600160a01b03918216600090815260056020526040902080546001600160a01b03191691909216179055565b6001600160a01b03811660009081526004602052604081205481906107c55760405162461bcd60e51b815260206004820152601060248201526f139bc81d1bdad95b9cc81cdd185ad95960821b6044820152606401610332565b60005b6001548110156108215761080384600183815481106107e9576107e9610e6c565b6000918252602090912001546001600160a01b031661052f565b61080d9083610cee565b91508061081981610e82565b9150506107c8565b5092915050565b6001600160a01b0381166000908152600360209081526040808320338452909152902054806108995760405162461bcd60e51b815260206004820152601f60248201527f5374616b696e672062616c616e63652063616e6e6f74206265207a65726f2e006044820152606401610332565b60405163a9059cbb60e01b8152336004820152602481018290526001600160a01b0383169063a9059cbb906044016020604051808303816000875af11580156108e6573d6000803e3d6000fd5b505050506040513d601f19601f8201168201806040525081019061090a9190610cb6565b503360009081526004602052604090205461092790600190610e9d565b336000908152600460205260409020555050565b6000805b60015481101561099c57826001600160a01b03166001828154811061096657610966610e6c565b6000918252602090912001546001600160a01b0316141561098a5750600192915050565b8061099481610e82565b91505061093f565b50600092915050565b6001600160a01b03808216600090815260056020526040808220548151633fabe5a360e21b815291519293849391169182918491839163feaf968c9160048082019260a0929091908290030181865afa158015610a06573d6000803e3d6000fd5b505050506040513d601f19601f82011682018060405250810190610a2a9190610ece565b5050509150506000826001600160a01b031663313ce5676040518163ffffffff1660e01b8152600401602060405180830381865afa158015610a70573d6000803e3d6000fd5b505050506040513d601f19601f82011682018060405250810190610a949190610f1e565b919760ff909216965090945050505050565b6000546001600160a01b03163314610ad05760405162461bcd60e51b815260040161033290610d06565b6001600160a01b038116610b355760405162461bcd60e51b815260206004820152602660248201527f4f776e61626c653a206e6577206f776e657220697320746865207a65726f206160448201526564647265737360d01b6064820152608401610332565b6106da81610bb9565b600281815481106105c657600080fd5b6001600160a01b038082166000908152600360209081526040808320938616835292905220546104b0576001600160a01b038216600090815260046020526040902054610b9c906001610cee565b6001600160a01b0383166000908152600460205260409020555050565b600080546001600160a01b038381166001600160a01b0319831681178455604051919092169283917f8be0079c531659141344cd1fd0a4f28419497f9722a3daafe3b4186f6b6457e09190a35050565b80356001600160a01b0381168114610c2057600080fd5b919050565b60008060408385031215610c3857600080fd5b82359150610c4860208401610c09565b90509250929050565b600060208284031215610c6357600080fd5b610c6c82610c09565b9392505050565b60008060408385031215610c8657600080fd5b610c8f83610c09565b9150610c4860208401610c09565b600060208284031215610caf57600080fd5b5035919050565b600060208284031215610cc857600080fd5b81518015158114610c6c57600080fd5b634e487b7160e01b600052601160045260246000fd5b60008219821115610d0157610d01610cd8565b500190565b6020808252818101527f4f776e61626c653a2063616c6c6572206973206e6f7420746865206f776e6572604082015260600190565b600181815b80851115610d76578160001904821115610d5c57610d5c610cd8565b80851615610d6957918102915b93841c9390800290610d40565b509250929050565b600082610d8d575060016105b0565b81610d9a575060006105b0565b8160018114610db05760028114610dba57610dd6565b60019150506105b0565b60ff841115610dcb57610dcb610cd8565b50506001821b6105b0565b5060208310610133831016604e8410600b8410161715610df9575081810a6105b0565b610e038383610d3b565b8060001904821115610e1757610e17610cd8565b029392505050565b6000610c6c8383610d7e565b6000816000190483118215151615610e4557610e45610cd8565b500290565b600082610e6757634e487b7160e01b600052601260045260246000fd5b500490565b634e487b7160e01b600052603260045260246000fd5b6000600019821415610e9657610e96610cd8565b5060010190565b600082821015610eaf57610eaf610cd8565b500390565b805169ffffffffffffffffffff81168114610c2057600080fd5b600080600080600060a08688031215610ee657600080fd5b610eef86610eb4565b9450602086015193506040860151925060608601519150610f1260808701610eb4565b90509295509295909350565b600060208284031215610f3057600080fd5b815160ff81168114610c6c57600080fdfea2646970667358221220122dd604c5b2220d7506918fea170955a80bf18e341874cd4ee0a00ca9a6b0da64736f6c634300080a0033","bytecodeSha1":"90cbc4b6fc12e2b13d31345b7f0c8889e2951242","compiler":{"evm_version":"istanbul","optimizer":{"enabled":true,"runs":200},"version":"0.8.10+commit.fc410830"},"contractName":"TokenFarm","language":"Solidity","natspec":{"kind":"dev","methods":{"owner()":{"details":"Returns the address of the current owner."},"renounceOwnership()":{"details":"Leaves the contract without owner. It will not be possible to call `onlyOwner` functions anymore. Can only be called by the current owner. NOTE: Renouncing ownership will leave the contract without an owner, thereby removing any functionality that is only available to the owner."},"transferOwnership(address)":{"details":"Transfers ownership of the contract to a new account (`newOwner`). Can only be called by the current owner."}},"version":1},"opcodes":"PUSH1 0x80 PUSH1 0x40 MSTORE CALLVALUE DUP1 ISZERO PUSH2 0x10 JUMPI PUSH1 0x0 DUP1 REVERT JUMPDEST POP PUSH1 0x4 CALLDATASIZE LT PUSH2 0x116 JUMPI PUSH1 0x0 CALLDATALOAD PUSH1 0xE0 SHR DUP1 PUSH4 0x715018A6 GT PUSH2 0xA2 JUMPI DUP1 PUSH4 0xC5421230 GT PUSH2 0x71 JUMPI DUP1 PUSH4 0xC5421230 EQ PUSH2 0x262 JUMPI DUP1 PUSH4 0xDD5B8467 EQ PUSH2 0x275 JUMPI DUP1 PUSH4 0xF1C5D6C2 EQ PUSH2 0x298 JUMPI DUP1 PUSH4 0xF2FDE38B EQ PUSH2 0x2C0 JUMPI DUP1 PUSH4 0xFD5E6DD1 EQ PUSH2 0x2D3 JUMPI PUSH1 0x0 DUP1 REVERT JUMPDEST DUP1 PUSH4 0x715018A6 EQ PUSH2 0x223 JUMPI DUP1 PUSH4 0x877DD39D EQ PUSH2 0x22B JUMPI DUP1 PUSH4 0x8DA5CB5B EQ PUSH2 0x23E JUMPI DUP1 PUSH4 0xAF3F5E22 EQ PUSH2 0x24F JUMPI PUSH1 0x0 DUP1 REVERT JUMPDEST DUP1 PUSH4 0x29161A00 GT PUSH2 0xE9 JUMPI DUP1 PUSH4 0x29161A00 EQ PUSH2 0x1AA JUMPI DUP1 PUSH4 0x55B08ABC EQ PUSH2 0x1D5 JUMPI DUP1 PUSH4 0x5E5F2E26 EQ PUSH2 0x1F5 JUMPI DUP1 PUSH4 0x5EB186F8 EQ PUSH2 0x208 JUMPI DUP1 PUSH4 0x60AB5852 EQ PUSH2 0x21B JUMPI PUSH1 0x0 DUP1 REVERT JUMPDEST DUP1 PUSH4 0xBEA440D EQ PUSH2 0x11B JUMPI DUP1 PUSH4 0x171E44EA EQ PUSH2 0x130 JUMPI DUP1 PUSH4 0x276B11DA EQ PUSH2 0x143 JUMPI DUP1 PUSH4 0x27927B3E EQ PUSH2 0x169 JUMPI JUMPDEST PUSH1 0x0 DUP1 REVERT JUMPDEST PUSH2 0x12E PUSH2 0x129 CALLDATASIZE PUSH1 0x4 PUSH2 0xC25 JUMP JUMPDEST PUSH2 0x2E6 JUMP JUMPDEST STOP JUMPDEST PUSH2 0x12E PUSH2 0x13E CALLDATASIZE PUSH1 0x4 PUSH2 0xC51 JUMP JUMPDEST PUSH2 0x4B4 JUMP JUMPDEST PUSH2 0x156 PUSH2 0x151 CALLDATASIZE PUSH1 0x4 PUSH2 0xC73 JUMP JUMPDEST PUSH2 0x52F JUMP JUMPDEST PUSH1 0x40 MLOAD SWAP1 DUP2 MSTORE PUSH1 0x20 ADD JUMPDEST PUSH1 0x40 MLOAD DUP1 SWAP2 SUB SWAP1 RETURN JUMPDEST PUSH2 0x192 PUSH2 0x177 CALLDATASIZE PUSH1 0x4 PUSH2 0xC51 JUMP JUMPDEST PUSH1 0x5 PUSH1 0x20 MSTORE PUSH1 0x0 SWAP1 DUP2 MSTORE PUSH1 0x40 SWAP1 KECCAK256 SLOAD PUSH1 0x1 PUSH1 0x1 PUSH1 0xA0 SHL SUB AND DUP2 JUMP JUMPDEST PUSH1 0x40 MLOAD PUSH1 0x1 PUSH1 0x1 PUSH1 0xA0 SHL SUB SWAP1 SWAP2 AND DUP2 MSTORE PUSH1 0x20 ADD PUSH2 0x160 JUMP JUMPDEST PUSH2 0x156 PUSH2 0x1B8 CALLDATASIZE PUSH1 0x4 PUSH2 0xC73 JUMP JUMPDEST PUSH1 0x3 PUSH1 0x20 SWAP1 DUP2 MSTORE PUSH1 0x0 SWAP3 DUP4 MSTORE PUSH1 0x40 DUP1 DUP5 KECCAK256 SWAP1 SWAP2 MSTORE SWAP1 DUP3 MSTORE SWAP1 KECCAK256 SLOAD DUP2 JUMP JUMPDEST PUSH2 0x156 PUSH2 0x1E3 CALLDATASIZE PUSH1 0x4 PUSH2 0xC51 JUMP JUMPDEST PUSH1 0x4 PUSH1 0x20 MSTORE PUSH1 0x0 SWAP1 DUP2 MSTORE PUSH1 0x40 SWAP1 KECCAK256 SLOAD DUP2 JUMP JUMPDEST PUSH2 0x192 PUSH2 0x203 CALLDATASIZE PUSH1 0x4 PUSH2 0xC9D JUMP JUMPDEST PUSH2 0x5B6 JUMP JUMPDEST PUSH1 0x6 SLOAD PUSH2 0x192 SWAP1 PUSH1 0x1 PUSH1 0x1 PUSH1 0xA0 SHL SUB AND DUP2 JUMP JUMPDEST PUSH2 0x12E PUSH2 0x5E0 JUMP JUMPDEST PUSH2 0x12E PUSH2 0x6DD JUMP JUMPDEST PUSH2 0x12E PUSH2 0x239 CALLDATASIZE PUSH1 0x4 PUSH2 0xC73 JUMP JUMPDEST PUSH2 0x713 JUMP JUMPDEST PUSH1 0x0 SLOAD PUSH1 0x1 PUSH1 0x1 PUSH1 0xA0 SHL SUB AND PUSH2 0x192 JUMP JUMPDEST PUSH2 0x156 PUSH2 0x25D CALLDATASIZE PUSH1 0x4 PUSH2 0xC51 JUMP JUMPDEST PUSH2 0x76B JUMP JUMPDEST PUSH2 0x12E PUSH2 0x270 CALLDATASIZE PUSH1 0x4 PUSH2 0xC51 JUMP JUMPDEST PUSH2 0x828 JUMP JUMPDEST PUSH2 0x288 PUSH2 0x283 CALLDATASIZE PUSH1 0x4 PUSH2 0xC51 JUMP JUMPDEST PUSH2 0x93B JUMP JUMPDEST PUSH1 0x40 MLOAD SWAP1 ISZERO ISZERO DUP2 MSTORE PUSH1 0x20 ADD PUSH2 0x160 JUMP JUMPDEST PUSH2 0x2AB PUSH2 0x2A6 CALLDATASIZE PUSH1 0x4 PUSH2 0xC51 JUMP JUMPDEST PUSH2 0x9A5 JUMP JUMPDEST PUSH1 0x40 DUP1 MLOAD SWAP3 DUP4 MSTORE PUSH1 0x20 DUP4 ADD SWAP2 SWAP1 SWAP2 MSTORE ADD PUSH2 0x160 JUMP JUMPDEST PUSH2 0x12E PUSH2 0x2CE CALLDATASIZE PUSH1 0x4 PUSH2 0xC51 JUMP JUMPDEST PUSH2 0xAA6 JUMP JUMPDEST PUSH2 0x192 PUSH2 0x2E1 CALLDATASIZE PUSH1 0x4 PUSH2 0xC9D JUMP JUMPDEST PUSH2 0xB3E JUMP JUMPDEST PUSH1 0x0 DUP3 GT PUSH2 0x33B JUMPI PUSH1 0x40 MLOAD PUSH3 0x461BCD PUSH1 0xE5 SHL DUP2 MSTORE PUSH1 0x20 PUSH1 0x4 DUP3 ADD MSTORE PUSH1 0x1D PUSH1 0x24 DUP3 ADD MSTORE PUSH32 0x416D6F756E74206D757374206265206D6F7265207468616E207A65726F000000 PUSH1 0x44 DUP3 ADD MSTORE PUSH1 0x64 ADD JUMPDEST PUSH1 0x40 MLOAD DUP1 SWAP2 SUB SWAP1 REVERT JUMPDEST PUSH2 0x344 DUP2 PUSH2 0x93B JUMP JUMPDEST PUSH2 0x387 JUMPI PUSH1 0x40 MLOAD PUSH3 0x461BCD PUSH1 0xE5 SHL DUP2 MSTORE PUSH1 0x20 PUSH1 0x4 DUP3 ADD MSTORE PUSH1 0x14 PUSH1 0x24 DUP3 ADD MSTORE PUSH20 0x151BDAD95B881A5CC81B9BDD08185B1B1BDDD959 PUSH1 0x62 SHL PUSH1 0x44 DUP3 ADD MSTORE PUSH1 0x64 ADD PUSH2 0x332 JUMP JUMPDEST PUSH1 0x40 MLOAD PUSH4 0x23B872DD PUSH1 0xE0 SHL DUP2 MSTORE CALLER PUSH1 0x4 DUP3 ADD MSTORE ADDRESS PUSH1 0x24 DUP3 ADD MSTORE PUSH1 0x44 DUP2 ADD DUP4 SWAP1 MSTORE PUSH1 0x1 PUSH1 0x1 PUSH1 0xA0 SHL SUB DUP3 AND SWAP1 PUSH4 0x23B872DD SWAP1 PUSH1 0x64 ADD PUSH1 0x20 PUSH1 0x40 MLOAD DUP1 DUP4 SUB DUP2 PUSH1 0x0 DUP8 GAS CALL ISZERO DUP1 ISZERO PUSH2 0x3DA JUMPI RETURNDATASIZE PUSH1 0x0 DUP1 RETURNDATACOPY RETURNDATASIZE PUSH1 0x0 REVERT JUMPDEST POP POP POP POP PUSH1 0x40 MLOAD RETURNDATASIZE PUSH1 0x1F NOT PUSH1 0x1F DUP3 ADD AND DUP3 ADD DUP1 PUSH1 0x40 MSTORE POP DUP2 ADD SWAP1 PUSH2 0x3FE SWAP2 SWAP1 PUSH2 0xCB6 JUMP JUMPDEST POP PUSH2 0x409 CALLER DUP3 PUSH2 0xB4E JUMP JUMPDEST PUSH1 0x1 PUSH1 0x1 PUSH1 0xA0 SHL SUB DUP2 AND PUSH1 0x0 SWAP1 DUP2 MSTORE PUSH1 0x3 PUSH1 0x20 SWAP1 DUP2 MSTORE PUSH1 0x40 DUP1 DUP4 KECCAK256 CALLER DUP5 MSTORE SWAP1 SWAP2 MSTORE SWAP1 KECCAK256 SLOAD PUSH2 0x438 SWAP1 DUP4 SWAP1 PUSH2 0xCEE JUMP JUMPDEST PUSH1 0x1 PUSH1 0x1 PUSH1 0xA0 SHL SUB DUP3 AND PUSH1 0x0 SWAP1 DUP2 MSTORE PUSH1 0x3 PUSH1 0x20 SWAP1 DUP2 MSTORE PUSH1 0x40 DUP1 DUP4 KECCAK256 CALLER DUP5 MSTORE DUP3 MSTORE DUP1 DUP4 KECCAK256 SWAP4 SWAP1 SWAP4 SSTORE PUSH1 0x4 SWAP1 MSTORE KECCAK256 SLOAD PUSH1 0x1 EQ ISZERO PUSH2 0x4B0 JUMPI PUSH1 0x2 DUP1 SLOAD PUSH1 0x1 DUP2 ADD DUP3 SSTORE PUSH1 0x0 SWAP2 SWAP1 SWAP2 MSTORE PUSH32 0x405787FA12A823E0F2B7631CC41B3BA8828B3321CA811111FA75CD3AA3BB5ACE ADD DUP1 SLOAD PUSH1 0x1 PUSH1 0x1 PUSH1 0xA0 SHL SUB NOT AND CALLER OR SWAP1 SSTORE JUMPDEST POP POP JUMP JUMPDEST PUSH1 0x0 SLOAD PUSH1 0x1 PUSH1 0x1 PUSH1 0xA0 SHL SUB AND CALLER EQ PUSH2 0x4DE JUMPI PUSH1 0x40 MLOAD PUSH3 0x461BCD PUSH1 0xE5 SHL DUP2 MSTORE PUSH1 0x4 ADD PUSH2 0x332 SWAP1 PUSH2 0xD06 JUMP JUMPDEST PUSH1 0x1 DUP1 SLOAD DUP1 DUP3 ADD DUP3 SSTORE PUSH1 0x0 SWAP2 SWAP1 SWAP2 MSTORE PUSH32 0xB10E2D527612073B26EECDFD717E6A320CF44B4AFAC2B0732D9FCBE2B7FA0CF6 ADD DUP1 SLOAD PUSH1 0x1 PUSH1 0x1 PUSH1 0xA0 SHL SUB NOT AND PUSH1 0x1 PUSH1 0x1 PUSH1 0xA0 SHL SUB SWAP3 SWAP1 SWAP3 AND SWAP2 SWAP1 SWAP2 OR SWAP1 SSTORE JUMP JUMPDEST PUSH1 0x1 PUSH1 0x1 PUSH1 0xA0 SHL SUB DUP3 AND PUSH1 0x0 SWAP1 DUP2 MSTORE PUSH1 0x4 PUSH1 0x20 MSTORE PUSH1 0x40 DUP2 KECCAK256 SLOAD PUSH2 0x554 JUMPI POP PUSH1 0x0 PUSH2 0x5B0 JUMP JUMPDEST PUSH1 0x0 DUP1 PUSH2 0x560 DUP5 PUSH2 0x9A5 JUMP JUMPDEST SWAP1 SWAP3 POP SWAP1 POP PUSH2 0x570 DUP2 PUSH1 0xA PUSH2 0xE1F JUMP JUMPDEST PUSH1 0x1 PUSH1 0x1 PUSH1 0xA0 SHL SUB DUP1 DUP7 AND PUSH1 0x0 SWAP1 DUP2 MSTORE PUSH1 0x3 PUSH1 0x20 SWAP1 DUP2 MSTORE PUSH1 0x40 DUP1 DUP4 KECCAK256 SWAP4 DUP11 AND DUP4 MSTORE SWAP3 SWAP1 MSTORE KECCAK256 SLOAD PUSH2 0x5A1 SWAP1 DUP5 SWAP1 PUSH2 0xE2B JUMP JUMPDEST PUSH2 0x5AB SWAP2 SWAP1 PUSH2 0xE4A JUMP JUMPDEST SWAP3 POP POP POP JUMPDEST SWAP3 SWAP2 POP POP JUMP JUMPDEST PUSH1 0x1 DUP2 DUP2 SLOAD DUP2 LT PUSH2 0x5C6 JUMPI PUSH1 0x0 DUP1 REVERT JUMPDEST PUSH1 0x0 SWAP2 DUP3 MSTORE PUSH1 0x20 SWAP1 SWAP2 KECCAK256 ADD SLOAD PUSH1 0x1 PUSH1 0x1 PUSH1 0xA0 SHL SUB AND SWAP1 POP DUP2 JUMP JUMPDEST PUSH1 0x0 SLOAD PUSH1 0x1 PUSH1 0x1 PUSH1 0xA0 SHL SUB AND CALLER EQ PUSH2 0x60A JUMPI PUSH1 0x40 MLOAD PUSH3 0x461BCD PUSH1 0xE5 SHL DUP2 MSTORE PUSH1 0x4 ADD PUSH2 0x332 SWAP1 PUSH2 0xD06 JUMP JUMPDEST PUSH1 0x0 JUMPDEST PUSH1 0x2 SLOAD DUP2 LT ISZERO PUSH2 0x6DA JUMPI PUSH1 0x0 PUSH1 0x2 DUP3 DUP2 SLOAD DUP2 LT PUSH2 0x62C JUMPI PUSH2 0x62C PUSH2 0xE6C JUMP JUMPDEST PUSH1 0x0 SWAP2 DUP3 MSTORE PUSH1 0x20 DUP3 KECCAK256 ADD SLOAD PUSH1 0x1 PUSH1 0x1 PUSH1 0xA0 SHL SUB AND SWAP2 POP PUSH2 0x64B DUP3 PUSH2 0x76B JUMP JUMPDEST PUSH1 0x6 SLOAD PUSH1 0x40 MLOAD PUSH4 0xA9059CBB PUSH1 0xE0 SHL DUP2 MSTORE PUSH1 0x1 PUSH1 0x1 PUSH1 0xA0 SHL SUB DUP6 DUP2 AND PUSH1 0x4 DUP4 ADD MSTORE PUSH1 0x24 DUP3 ADD DUP5 SWAP1 MSTORE SWAP3 SWAP4 POP SWAP2 AND SWAP1 PUSH4 0xA9059CBB SWAP1 PUSH1 0x44 ADD PUSH1 0x20 PUSH1 0x40 MLOAD DUP1 DUP4 SUB DUP2 PUSH1 0x0 DUP8 GAS CALL ISZERO DUP1 ISZERO PUSH2 0x6A0 JUMPI RETURNDATASIZE PUSH1 0x0 DUP1 RETURNDATACOPY RETURNDATASIZE PUSH1 0x0 REVERT JUMPDEST POP POP POP POP PUSH1 0x40 MLOAD RETURNDATASIZE PUSH1 0x1F NOT PUSH1 0x1F DUP3 ADD AND DUP3 ADD DUP1 PUSH1 0x40 MSTORE POP DUP2 ADD SWAP1 PUSH2 0x6C4 SWAP2 SWAP1 PUSH2 0xCB6 JUMP JUMPDEST POP POP POP DUP1 DUP1 PUSH2 0x6D2 SWAP1 PUSH2 0xE82 JUMP JUMPDEST SWAP2 POP POP PUSH2 0x60D JUMP JUMPDEST POP JUMP JUMPDEST PUSH1 0x0 SLOAD PUSH1 0x1 PUSH1 0x1 PUSH1 0xA0 SHL SUB AND CALLER EQ PUSH2 0x707 JUMPI PUSH1 0x40 MLOAD PUSH3 0x461BCD PUSH1 0xE5 SHL DUP2 MSTORE PUSH1 0x4 ADD PUSH2 0x332 SWAP1 PUSH2 0xD06 JUMP JUMPDEST PUSH2 0x711 PUSH1 0x0 PUSH2 0xBB9 JUMP JUMPDEST JUMP JUMPDEST PUSH1 0x0 SLOAD PUSH1 0x1 PUSH1 0x1 PUSH1 0xA0 SHL SUB AND CALLER EQ PUSH2 0x73D JUMPI PUSH1 0x40 MLOAD PUSH3 0x461BCD PUSH1 0xE5 SHL DUP2 MSTORE PUSH1 0x4 ADD PUSH2 0x332 SWAP1 PUSH2 0xD06 JUMP JUMPDEST PUSH1 0x1 PUSH1 0x1 PUSH1 0xA0 SHL SUB SWAP2 DUP3 AND PUSH1 0x0 SWAP1 DUP2 MSTORE PUSH1 0x5 PUSH1 0x20 MSTORE PUSH1 0x40 SWAP1 KECCAK256 DUP1 SLOAD PUSH1 0x1 PUSH1 0x1 PUSH1 0xA0 SHL SUB NOT AND SWAP2 SWAP1 SWAP3 AND OR SWAP1 SSTORE JUMP JUMPDEST PUSH1 0x1 PUSH1 0x1 PUSH1 0xA0 SHL SUB DUP2 AND PUSH1 0x0 SWAP1 DUP2 MSTORE PUSH1 0x4 PUSH1 0x20 MSTORE PUSH1 0x40 DUP2 KECCAK256 SLOAD DUP2 SWAP1 PUSH2 0x7C5 JUMPI PUSH1 0x40 MLOAD PUSH3 0x461BCD PUSH1 0xE5 SHL DUP2 MSTORE PUSH1 0x20 PUSH1 0x4 DUP3 ADD MSTORE PUSH1 0x10 PUSH1 0x24 DUP3 ADD MSTORE PUSH16 0x139BC81D1BDAD95B9CC81CDD185AD959 PUSH1 0x82 SHL PUSH1 0x44 DUP3 ADD MSTORE PUSH1 0x64 ADD PUSH2 0x332 JUMP JUMPDEST PUSH1 0x0 JUMPDEST PUSH1 0x1 SLOAD DUP2 LT ISZERO PUSH2 0x821 JUMPI PUSH2 0x803 DUP5 PUSH1 0x1 DUP4 DUP2 SLOAD DUP2 LT PUSH2 0x7E9 JUMPI PUSH2 0x7E9 PUSH2 0xE6C JUMP JUMPDEST PUSH1 0x0 SWAP2 DUP3 MSTORE PUSH1 0x20 SWAP1 SWAP2 KECCAK256 ADD SLOAD PUSH1 0x1 PUSH1 0x1 PUSH1 0xA0 SHL SUB AND PUSH2 0x52F JUMP JUMPDEST PUSH2 0x80D SWAP1 DUP4 PUSH2 0xCEE JUMP JUMPDEST SWAP2 POP DUP1 PUSH2 0x819 DUP2 PUSH2 0xE82 JUMP JUMPDEST SWAP2 POP POP PUSH2 0x7C8 JUMP JUMPDEST POP SWAP3 SWAP2 POP POP JUMP JUMPDEST PUSH1 0x1 PUSH1 0x1 PUSH1 0xA0 SHL SUB DUP2 AND PUSH1 0x0 SWAP1 DUP2 MSTORE PUSH1 0x3 PUSH1 0x20 SWAP1 DUP2 MSTORE PUSH1 0x40 DUP1 DUP4 KECCAK256 CALLER DUP5 MSTORE SWAP1 SWAP2 MSTORE SWAP1 KECCAK256 SLOAD DUP1 PUSH2 0x899 JUMPI PUSH1 0x40 MLOAD PUSH3 0x461BCD PUSH1 0xE5 SHL DUP2 MSTORE PUSH1 0x20 PUSH1 0x4 DUP3 ADD MSTORE PUSH1 0x1F PUSH1 0x24 DUP3 ADD MSTORE PUSH32 0x5374616B696E672062616C616E63652063616E6E6F74206265207A65726F2E00 PUSH1 0x44 DUP3 ADD MSTORE PUSH1 0x64 ADD PUSH2 0x332 JUMP JUMPDEST PUSH1 0x40 MLOAD PUSH4 0xA9059CBB PUSH1 0xE0 SHL DUP2 MSTORE CALLER PUSH1 0x4 DUP3 ADD MSTORE PUSH1 0x24 DUP2 ADD DUP3 SWAP1 MSTORE PUSH1 0x1 PUSH1 0x1 PUSH1 0xA0 SHL SUB DUP4 AND SWAP1 PUSH4 0xA9059CBB SWAP1 PUSH1 0x44 ADD PUSH1 0x20 PUSH1 0x40 MLOAD DUP1 DUP4 SUB DUP2 PUSH1 0x0 DUP8 GAS CALL ISZERO DUP1 ISZERO PUSH2 0x8E6 JUMPI RETURNDATASIZE PUSH1 0x0 DUP1 RETURNDATACOPY RETURNDATASIZE PUSH1 0x0 REVERT JUMPDEST POP POP POP POP PUSH1 0x40 MLOAD RETURNDATASIZE PUSH1 0x1F NOT PUSH1 0x1F DUP3 ADD AND DUP3 ADD DUP1 PUSH1 0x40 MSTORE POP DUP2 ADD SWAP1 PUSH2 0x90A SWAP2 SWAP1 PUSH2 0xCB6 JUMP JUMPDEST POP CALLER PUSH1 0x0 SWAP1 DUP2 MSTORE PUSH1 0x4 PUSH1 0x20 MSTORE PUSH1 0x40 SWAP1 KECCAK256 SLOAD PUSH2 0x927 SWAP1 PUSH1 0x1 SWAP1 PUSH2 0xE9D JUMP JUMPDEST CALLER PUSH1 0x0 SWAP1 DUP2 MSTORE PUSH1 0x4 PUSH1 0x20 MSTORE PUSH1 0x40 SWAP1 KECCAK256 SSTORE POP POP JUMP JUMPDEST PUSH1 0x0 DUP1 JUMPDEST PUSH1 0x1 SLOAD DUP2 LT ISZERO PUSH2 0x99C JUMPI DUP3 PUSH1 0x1 PUSH1 0x1 PUSH1 0xA0 SHL SUB AND PUSH1 0x1 DUP3 DUP2 SLOAD DUP2 LT PUSH2 0x966 JUMPI PUSH2 0x966 PUSH2 0xE6C JUMP JUMPDEST PUSH1 0x0 SWAP2 DUP3 MSTORE PUSH1 0x20 SWAP1 SWAP2 KECCAK256 ADD SLOAD PUSH1 0x1 PUSH1 0x1 PUSH1 0xA0 SHL SUB AND EQ ISZERO PUSH2 0x98A JUMPI POP PUSH1 0x1 SWAP3 SWAP2 POP POP JUMP JUMPDEST DUP1 PUSH2 0x994 DUP2 PUSH2 0xE82 JUMP JUMPDEST SWAP2 POP POP PUSH2 0x93F JUMP JUMPDEST POP PUSH1 0x0 SWAP3 SWAP2 POP POP JUMP JUMPDEST PUSH1 0x1 PUSH1 0x1 PUSH1 0xA0 SHL SUB DUP1 DUP3 AND PUSH1 0x0 SWAP1 DUP2 MSTORE PUSH1 0x5 PUSH1 0x20 MSTORE PUSH1 0x40 DUP1 DUP3 KECCAK256 SLOAD DUP2 MLOAD PUSH4 0x3FABE5A3 PUSH1 0xE2 SHL DUP2 MSTORE SWAP2 MLOAD SWAP3 SWAP4 DUP5 SWAP4 SWAP2 AND SWAP2 DUP3 SWAP2 DUP5 SWAP2 DUP4 SWAP2 PUSH4 0xFEAF968C SWAP2 PUSH1 0x4 DUP1 DUP3 ADD SWAP3 PUSH1 0xA0 SWAP3 SWAP1 SWAP2 SWAP1 DUP3 SWAP1 SUB ADD DUP2 DUP7 GAS STATICCALL ISZERO DUP1 ISZERO PUSH2 0xA06 JUMPI RETURNDATASIZE PUSH1 0x0 DUP1 RETURNDATACOPY RETURNDATASIZE PUSH1 0x0 REVERT JUMPDEST POP POP POP POP PUSH1 0x40 MLOAD RETURNDATASIZE PUSH1 0x1F NOT PUSH1 0x1F DUP3 ADD AND DUP3 ADD DUP1 PUSH1 0x40 MSTORE POP DUP2 ADD SWAP1 PUSH2 0xA2A SWAP2 SWAP1 PUSH2 0xECE JUMP JUMPDEST POP POP POP SWAP2 POP POP PUSH1 0x0 DUP3 PUSH1 0x1 PUSH1 0x1 PUSH1 0xA0 SHL SUB AND PUSH4 0x313CE567 PUSH1 0x40 MLOAD DUP2 PUSH4 0xFFFFFFFF AND PUSH1 0xE0 SHL DUP2 MSTORE PUSH1 0x4 ADD PUSH1 0x20 PUSH1 0x40 MLOAD DUP1 DUP4 SUB DUP2 DUP7 GAS STATICCALL ISZERO DUP1 ISZERO PUSH2 0xA70 JUMPI RETURNDATASIZE PUSH1 0x0 DUP1 RETURNDATACOPY RETURNDATASIZE PUSH1 0x0 REVERT JUMPDEST POP POP POP POP PUSH1 0x40 MLOAD RETURNDATASIZE PUSH1 0x1F NOT PUSH1 0x1F DUP3 ADD AND DUP3 ADD DUP1 PUSH1 0x40 MSTORE POP DUP2 ADD SWAP1 PUSH2 0xA94 SWAP2 SWAP1 PUSH2 0xF1E JUMP JUMPDEST SWAP2 SWAP8 PUSH1 0xFF SWAP1 SWAP3 AND SWAP7 POP SWAP1 SWAP5 POP POP POP POP POP JUMP JUMPDEST PUSH1 0x0 SLOAD PUSH1 0x1 PUSH1 0x1 PUSH1 0xA0 SHL SUB AND CALLER EQ PUSH2 0xAD0 JUMPI PUSH1 0x40 MLOAD PUSH3 0x461BCD PUSH1 0xE5 SHL DUP2 MSTORE PUSH1 0x4 ADD PUSH2 0x332 SWAP1 PUSH2 0xD06 JUMP JUMPDEST PUSH1 0x1 PUSH1 0x1 PUSH1 0xA0 SHL SUB DUP2 AND PUSH2 0xB35 JUMPI PUSH1 0x40 MLOAD PUSH3 0x461BCD PUSH1 0xE5 SHL DUP2 MSTORE PUSH1 0x20 PUSH1 0x4 DUP3 ADD MSTORE PUSH1 0x26 PUSH1 0x24 DUP3 ADD MSTORE PUSH32 0x4F776E61626C653A206E6577206F776E657220697320746865207A65726F2061 PUSH1 0x44 DUP3 ADD MSTORE PUSH6 0x646472657373 PUSH1 0xD0 SHL PUSH1 0x64 DUP3 ADD MSTORE PUSH1 0x84 ADD PUSH2 0x332 JUMP JUMPDEST PUSH2 0x6DA DUP2 PUSH2 0xBB9 JUMP JUMPDEST PUSH1 0x2 DUP2 DUP2 SLOAD DUP2 LT PUSH2 0x5C6 JUMPI PUSH1 0x0 DUP1 REVERT JUMPDEST PUSH1 0x1 PUSH1 0x1 PUSH1 0xA0 SHL SUB DUP1 DUP3 AND PUSH1 0x0 SWAP1 DUP2 MSTORE PUSH1 0x3 PUSH1 0x20 SWAP1 DUP2 MSTORE PUSH1 0x40 DUP1 DUP4 KECCAK256 SWAP4 DUP7 AND DUP4 MSTORE SWAP3 SWAP1 MSTORE KECCAK256 SLOAD PUSH2 0x4B0 JUMPI PUSH1 0x1 PUSH1 0x1 PUSH1 0xA0 SHL SUB DUP3 AND PUSH1 0x0 SWAP1 DUP2 MSTORE PUSH1 0x4 PUSH1 0x20 MSTORE PUSH1 0x40 SWAP1 KECCAK256 SLOAD PUSH2 0xB9C SWAP1 PUSH1 0x1 PUSH2 0xCEE JUMP JUMPDEST PUSH1 0x1 PUSH1 0x1 PUSH1 0xA0 SHL SUB DUP4 AND PUSH1 0x0 SWAP1 DUP2 MSTORE PUSH1 0x4 PUSH1 0x20 MSTORE PUSH1 0x40 SWAP1 KECCAK256 SSTORE POP POP JUMP JUMPDEST PUSH1 0x0 DUP1 SLOAD PUSH1 0x1 PUSH1 0x1 PUSH1 0xA0 SHL SUB DUP4 DUP2 AND PUSH1 0x1 PUSH1 0x1 PUSH1 0xA0 SHL SUB NOT DUP4 AND DUP2 OR DUP5 SSTORE PUSH1 0x40 MLOAD SWAP2 SWAP1 SWAP3 AND SWAP3 DUP4 SWAP2 PUSH32 0x8BE0079C531659141344CD1FD0A4F28419497F9722A3DAAFE3B4186F6B6457E0 SWAP2 SWAP1 LOG3 POP POP JUMP JUMPDEST DUP1 CALLDATALOAD PUSH1 0x1 PUSH1 0x1 PUSH1 0xA0 SHL SUB DUP2 AND DUP2 EQ PUSH2 0xC20 JUMPI PUSH1 0x0 DUP1 REVERT JUMPDEST SWAP2 SWAP1 POP JUMP JUMPDEST PUSH1 0x0 DUP1 PUSH1 0x40 DUP4 DUP6 SUB SLT ISZERO PUSH2 0xC38 JUMPI PUSH1 0x0 DUP1 REVERT JUMPDEST DUP3 CALLDATALOAD SWAP2 POP PUSH2 0xC48 PUSH1 0x20 DUP5 ADD PUSH2 0xC09 JUMP JUMPDEST SWAP1 POP SWAP3 POP SWAP3 SWAP1 POP JUMP JUMPDEST PUSH1 0x0 PUSH1 0x20 DUP3 DUP5 SUB SLT ISZERO PUSH2 0xC63 JUMPI PUSH1 0x0 DUP1 REVERT JUMPDEST PUSH2 0xC6C DUP3 PUSH2 0xC09 JUMP JUMPDEST SWAP4 SWAP3 POP POP POP JUMP JUMPDEST PUSH1 0x0 DUP1 PUSH1 0x40 DUP4 DUP6 SUB SLT ISZERO PUSH2 0xC86 JUMPI PUSH1 0x0 DUP1 REVERT JUMPDEST PUSH2 0xC8F DUP4 PUSH2 0xC09 JUMP JUMPDEST SWAP2 POP PUSH2 0xC48 PUSH1 0x20 DUP5 ADD PUSH2 0xC09 JUMP JUMPDEST PUSH1 0x0 PUSH1 0x20 DUP3 DUP5 SUB SLT ISZERO PUSH2 0xCAF JUMPI PUSH1 0x0 DUP1 REVERT JUMPDEST POP CALLDATALOAD SWAP2 SWAP1 POP JUMP JUMPDEST PUSH1 0x0 PUSH1 0x20 DUP3 DUP5 SUB SLT ISZERO PUSH2 0xCC8 JUMPI PUSH1 0x0 DUP1 REVERT JUMPDEST DUP2 MLOAD DUP1 ISZERO ISZERO DUP2 EQ PUSH2 0xC6C JUMPI PUSH1 0x0 DUP1 REVERT JUMPDEST PUSH4 0x4E487B71 PUSH1 0xE0 SHL PUSH1 0x0 MSTORE PUSH1 0x11 PUSH1 0x4 MSTORE PUSH1 0x24 PUSH1 0x0 REVERT JUMPDEST PUSH1 0x0 DUP3 NOT DUP3 GT ISZERO PUSH2 0xD01 JUMPI PUSH2 0xD01 PUSH2 0xCD8 JUMP JUMPDEST POP ADD SWAP1 JUMP JUMPDEST PUSH1 0x20 DUP1 DUP3 MSTORE DUP2 DUP2 ADD MSTORE PUSH32 0x4F776E61626C653A2063616C6C6572206973206E6F7420746865206F776E6572 PUSH1 0x40 DUP3 ADD MSTORE PUSH1 0x60 ADD SWAP1 JUMP JUMPDEST PUSH1 0x1 DUP2 DUP2 JUMPDEST DUP1 DUP6 GT ISZERO PUSH2 0xD76 JUMPI DUP2 PUSH1 0x0 NOT DIV DUP3 GT ISZERO PUSH2 0xD5C JUMPI PUSH2 0xD5C PUSH2 0xCD8 JUMP JUMPDEST DUP1 DUP6 AND ISZERO PUSH2 0xD69 JUMPI SWAP2 DUP2 MUL SWAP2 JUMPDEST SWAP4 DUP5 SHR SWAP4 SWAP1 DUP1 MUL SWAP1 PUSH2 0xD40 JUMP JUMPDEST POP SWAP3 POP SWAP3 SWAP1 POP JUMP JUMPDEST PUSH1 0x0 DUP3 PUSH2 0xD8D JUMPI POP PUSH1 0x1 PUSH2 0x5B0 JUMP JUMPDEST DUP2 PUSH2 0xD9A JUMPI POP PUSH1 0x0 PUSH2 0x5B0 JUMP JUMPDEST DUP2 PUSH1 0x1 DUP2 EQ PUSH2 0xDB0 JUMPI PUSH1 0x2 DUP2 EQ PUSH2 0xDBA JUMPI PUSH2 0xDD6 JUMP JUMPDEST PUSH1 0x1 SWAP2 POP POP PUSH2 0x5B0 JUMP JUMPDEST PUSH1 0xFF DUP5 GT ISZERO PUSH2 0xDCB JUMPI PUSH2 0xDCB PUSH2 0xCD8 JUMP JUMPDEST POP POP PUSH1 0x1 DUP3 SHL PUSH2 0x5B0 JUMP JUMPDEST POP PUSH1 0x20 DUP4 LT PUSH2 0x133 DUP4 LT AND PUSH1 0x4E DUP5 LT PUSH1 0xB DUP5 LT AND OR ISZERO PUSH2 0xDF9 JUMPI POP DUP2 DUP2 EXP PUSH2 0x5B0 JUMP JUMPDEST PUSH2 0xE03 DUP4 DUP4 PUSH2 0xD3B JUMP JUMPDEST DUP1 PUSH1 0x0 NOT DIV DUP3 GT ISZERO PUSH2 0xE17 JUMPI PUSH2 0xE17 PUSH2 0xCD8 JUMP JUMPDEST MUL SWAP4 SWAP3 POP POP POP JUMP JUMPDEST PUSH1 0x0 PUSH2 0xC6C DUP4 DUP4 PUSH2 0xD7E JUMP JUMPDEST PUSH1 0x0 DUP2 PUSH1 0x0 NOT DIV DUP4 GT DUP3 ISZERO ISZERO AND ISZERO PUSH2 0xE45 JUMPI PUSH2 0xE45 PUSH2 0xCD8 JUMP JUMPDEST POP MUL SWAP1 JUMP JUMPDEST PUSH1 0x0 DUP3 PUSH2 0xE67 JUMPI PUSH4 0x4E487B71 PUSH1 0xE0 SHL PUSH1 0x0 MSTORE PUSH1 0x12 PUSH1 0x4 MSTORE PUSH1 0x24 PUSH1 0x0 REVERT JUMPDEST POP DIV SWAP1 JUMP JUMPDEST PUSH4 0x4E487B71 PUSH1 0xE0 SHL PUSH1 0x0 MSTORE PUSH1 0x32 PUSH1 0x4 MSTORE PUSH1 0x24 PUSH1 0x0 REVERT JUMPDEST PUSH1 0x0 PUSH1 0x0 NOT DUP3 EQ ISZERO PUSH2 0xE96 JUMPI PUSH2 0xE96 PUSH2 0xCD8 JUMP JUMPDEST POP PUSH1 0x1 ADD SWAP1 JUMP JUMPDEST PUSH1 0x0 DUP3 DUP3 LT ISZERO PUSH2 0xEAF JUMPI PUSH2 0xEAF PUSH2 0xCD8 JUMP JUMPDEST POP SUB SWAP1 JUMP JUMPDEST DUP1 MLOAD PUSH10 0xFFFFFFFFFFFFFFFFFFFF DUP2 AND DUP2 EQ PUSH2 0xC20 JUMPI PUSH1 0x0 DUP1 REVERT JUMPDEST PUSH1 0x0 DUP1 PUSH1 0x0 DUP1 PUSH1 0x0 PUSH1 0xA0 DUP7 DUP9 SUB SLT ISZERO PUSH2 0xEE6 JUMPI PUSH1 0x0 DUP1 REVERT JUMPDEST PUSH2 0xEEF DUP7 PUSH2 0xEB4 JUMP JUMPDEST SWAP5 POP PUSH1 0x20 DUP7 ADD MLOAD SWAP4 POP PUSH1 0x40 DUP7 ADD MLOAD SWAP3 POP PUSH1 0x60 DUP7 ADD MLOAD SWAP2 POP PUSH2 0xF12 PUSH1 0x80 DUP8 ADD PUSH2 0xEB4 JUMP JUMPDEST SWAP1 POP SWAP3 SWAP6 POP SWAP3 SWAP6 SWAP1 SWAP4 POP JUMP JUMPDEST PUSH1 0x0 PUSH1 0x20 DUP3 DUP5 SUB SLT ISZERO PUSH2 0xF30 JUMPI PUSH1 0x0 DUP1 REVERT JUMPDEST DUP2 MLOAD PUSH1 0xFF DUP2 AND DUP2 EQ PUSH2 0xC6C JUMPI PUSH1 0x0 DUP1 REVERT INVALID LOG2 PUSH5 0x6970667358 0x22 SLT KECCAK256 SLT 0x2D 0xD6 DIV 0xC5 0xB2 0x22 0xD PUSH22 0x6918FEA170955A80BF18E341874CD4EE0A00CA9A6B0 0xDA PUSH5 0x736F6C6343 STOP ADDMOD EXP STOP CALLER ","sha1":"3f2178d5691fb30ca92ca026557b6bbaf27f5e2d","source":"//SPDX-License-Identifier: MIT\n\npragma solidity ^0.8;\nimport \"@openzeppelin/contracts/access/Ownable.sol\";\nimport \"@openzeppelin/contracts/token/ERC20/ERC20.sol\";\nimport \"@chainlink/contracts/src/v0.8/interfaces/AggregatorV3Interface.sol\";\n\ncontract TokenFarm is Ownable {\n    address[] public allowedTokens;\n    address[] public stakers;\n    mapping(address => mapping(address => uint256)) public stakingBalance;\n    mapping(address => uint256) public uniqueTokenStaked;\n    mapping(address => address) public tokenPriceFeedMapping;\n    IERC20 public dappToken;\n\n    constructor(address _dappTokenAddress) {\n        dappToken = IERC20(_dappTokenAddress);\n    }\n\n    function setPriceFeedContract(address _token, address _priceFeed)\n        public\n        onlyOwner\n    {\n        tokenPriceFeedMapping[_token] = _priceFeed;\n    }\n\n    function stakeTokens(uint256 _amount, address _token) public {\n        // what tokens can they stake ?\n        // how much can they stake ?\n        require(_amount > 0, \"Amount must be more than zero\");\n        require(tokenIsAllowed(_token), \"Token is not allowed\");\n        IERC20(_token).transferFrom(msg.sender, address(this), _amount);\n        updateUniqueTokenStaked(msg.sender, _token);\n        stakingBalance[_token][msg.sender] =\n            stakingBalance[_token][msg.sender] +\n            _amount;\n        if (uniqueTokenStaked[msg.sender] == 1) {\n            stakers.push(msg.sender);\n        }\n    }\n\n    function updateUniqueTokenStaked(address _user, address _token) internal {\n        if (stakingBalance[_token][_user] <= 0) {\n            uniqueTokenStaked[_user] = uniqueTokenStaked[_user] + 1;\n        }\n    }\n\n    function addAllowedTokens(address _token) public onlyOwner {\n        allowedTokens.push(_token);\n    }\n\n    function tokenIsAllowed(address _token) public view returns (bool) {\n        for (\n            uint256 allowedTokensIndex = 0;\n            allowedTokensIndex < allowedTokens.length;\n            allowedTokensIndex++\n        ) {\n            if (allowedTokens[allowedTokensIndex] == _token) {\n                return true;\n            }\n        }\n        return false;\n    }\n\n    function issueTokens() public onlyOwner {\n        for (\n            uint256 stakersIndex = 0;\n            stakersIndex < stakers.length;\n            stakersIndex++\n        ) {\n            address recipient = stakers[stakersIndex];\n            uint256 userTotalValue = getUserTotalValue(recipient);\n            dappToken.transfer(recipient, userTotalValue);\n        }\n    }\n\n    function getUserSingleTokenValue(address _user, address _token)\n        public\n        view\n        returns (uint256)\n    {\n        // 1 ETH -> £2000\n        // 2000\n        // 200 DAI -> £200\n        // 200\n        if (uniqueTokenStaked[_user] <= 0) {\n            return 0;\n        }\n        // price of token * staking balance of the token, of the user\n        (uint256 price, uint256 decimals) = getTokenValue(_token);\n        return ((stakingBalance[_token][_user] * price) / (10**decimals));\n    }\n\n    function getTokenValue(address _token)\n        public\n        view\n        returns (uint256, uint256)\n    {\n        // priceFeedAddress\n        address priceFeedAddress = tokenPriceFeedMapping[_token];\n        AggregatorV3Interface priceFeed = AggregatorV3Interface(\n            priceFeedAddress\n        );\n        (, int256 price, , , ) = priceFeed.latestRoundData();\n        uint256 decimals = priceFeed.decimals();\n        return (uint256(price), decimals);\n    }\n\n    function getUserTotalValue(address _user) public view returns (uint256) {\n        uint256 totalValue = 0;\n        require(uniqueTokenStaked[_user] > 0, \"No tokens staked\");\n        for (\n            uint256 allowedTokensIndex = 0;\n            allowedTokensIndex < allowedTokens.length;\n            allowedTokensIndex++\n        ) {\n            totalValue =\n                totalValue +\n                getUserSingleTokenValue(\n                    _user,\n                    allowedTokens[allowedTokensIndex]\n                );\n        }\n        return totalValue;\n    }\n\n    function unStakeTokens(address _token) public {\n        uint256 balance = stakingBalance[_token][msg.sender];\n        require(balance > 0, \"Staking balance cannot be zero.\");\n        IERC20(_token).transfer(msg.sender, balance);\n        stakingBalance[_token][msg.sender];\n        uniqueTokenStaked[msg.sender] = uniqueTokenStaked[msg.sender] - 1;\n    }\n}\n","sourcePath":"contracts/TokenFarm.sol","type":"contract","deployment":{"address":"0xdb85Ab8041607A86c0896D176574D1B86c5De135","chainid":"42","blockHeight":28566271}}